{
  "contractName": "Trade",
  "abi": [
    {
      "inputs": [],
      "payable": false,
      "stateMutability": "nonpayable",
      "type": "constructor"
    },
    {
      "anonymous": false,
      "inputs": [
        {
          "indexed": false,
          "internalType": "bytes",
          "name": "ss",
          "type": "bytes"
        }
      ],
      "name": "printbytes",
      "type": "event"
    },
    {
      "anonymous": false,
      "inputs": [
        {
          "indexed": false,
          "internalType": "bytes32",
          "name": "a",
          "type": "bytes32"
        }
      ],
      "name": "printbytes32",
      "type": "event"
    },
    {
      "anonymous": false,
      "inputs": [
        {
          "indexed": false,
          "internalType": "uint256",
          "name": "a",
          "type": "uint256"
        }
      ],
      "name": "printlength",
      "type": "event"
    },
    {
      "anonymous": false,
      "inputs": [
        {
          "indexed": false,
          "internalType": "string",
          "name": "aa",
          "type": "string"
        }
      ],
      "name": "printstring",
      "type": "event"
    },
    {
      "constant": true,
      "inputs": [],
      "name": "CF_deposit",
      "outputs": [
        {
          "internalType": "uint256",
          "name": "",
          "type": "uint256"
        }
      ],
      "payable": false,
      "stateMutability": "view",
      "type": "function"
    },
    {
      "constant": true,
      "inputs": [],
      "name": "CF_expiry",
      "outputs": [
        {
          "internalType": "uint256",
          "name": "",
          "type": "uint256"
        }
      ],
      "payable": false,
      "stateMutability": "view",
      "type": "function"
    },
    {
      "constant": true,
      "inputs": [],
      "name": "CF_percentage",
      "outputs": [
        {
          "internalType": "uint256",
          "name": "",
          "type": "uint256"
        }
      ],
      "payable": false,
      "stateMutability": "view",
      "type": "function"
    },
    {
      "constant": true,
      "inputs": [],
      "name": "CF_reward",
      "outputs": [
        {
          "internalType": "uint256",
          "name": "",
          "type": "uint256"
        }
      ],
      "payable": false,
      "stateMutability": "view",
      "type": "function"
    },
    {
      "constant": true,
      "inputs": [],
      "name": "P_col",
      "outputs": [
        {
          "internalType": "address",
          "name": "",
          "type": "address"
        }
      ],
      "payable": false,
      "stateMutability": "view",
      "type": "function"
    },
    {
      "constant": true,
      "inputs": [],
      "name": "P_opt",
      "outputs": [
        {
          "internalType": "address",
          "name": "",
          "type": "address"
        }
      ],
      "payable": false,
      "stateMutability": "view",
      "type": "function"
    },
    {
      "constant": true,
      "inputs": [
        {
          "internalType": "address",
          "name": "",
          "type": "address"
        }
      ],
      "name": "P_profile",
      "outputs": [
        {
          "internalType": "string",
          "name": "adr_feature",
          "type": "string"
        },
        {
          "internalType": "bytes32",
          "name": "Key_data",
          "type": "bytes32"
        },
        {
          "internalType": "uint256",
          "name": "V_deposit",
          "type": "uint256"
        },
        {
          "internalType": "bool",
          "name": "isRegisted",
          "type": "bool"
        },
        {
          "internalType": "bool",
          "name": "sampled",
          "type": "bool"
        },
        {
          "internalType": "bool",
          "name": "setfeature",
          "type": "bool"
        }
      ],
      "payable": false,
      "stateMutability": "view",
      "type": "function"
    },
    {
      "constant": true,
      "inputs": [],
      "name": "P_tc",
      "outputs": [
        {
          "internalType": "address",
          "name": "",
          "type": "address"
        }
      ],
      "payable": false,
      "stateMutability": "view",
      "type": "function"
    },
    {
      "constant": true,
      "inputs": [],
      "name": "start_time",
      "outputs": [
        {
          "internalType": "uint256",
          "name": "",
          "type": "uint256"
        }
      ],
      "payable": false,
      "stateMutability": "view",
      "type": "function"
    },
    {
      "constant": true,
      "inputs": [],
      "name": "state",
      "outputs": [
        {
          "internalType": "uint256",
          "name": "",
          "type": "uint256"
        }
      ],
      "payable": false,
      "stateMutability": "view",
      "type": "function"
    },
    {
      "constant": false,
      "inputs": [
        {
          "internalType": "string",
          "name": "_modeladr",
          "type": "string"
        },
        {
          "internalType": "uint256",
          "name": "_deposit",
          "type": "uint256"
        },
        {
          "internalType": "uint256",
          "name": "_percentage",
          "type": "uint256"
        }
      ],
      "name": "CreateContract",
      "outputs": [],
      "payable": true,
      "stateMutability": "payable",
      "type": "function"
    },
    {
      "constant": true,
      "inputs": [
        {
          "internalType": "string",
          "name": "ss",
          "type": "string"
        },
        {
          "internalType": "uint256",
          "name": "one_adr_len",
          "type": "uint256"
        }
      ],
      "name": "ConvertString2Arr",
      "outputs": [
        {
          "internalType": "string[]",
          "name": "",
          "type": "string[]"
        }
      ],
      "payable": false,
      "stateMutability": "pure",
      "type": "function"
    },
    {
      "constant": true,
      "inputs": [
        {
          "internalType": "string",
          "name": "s1",
          "type": "string"
        },
        {
          "internalType": "string",
          "name": "s2",
          "type": "string"
        }
      ],
      "name": "StrCmp",
      "outputs": [
        {
          "internalType": "bool",
          "name": "",
          "type": "bool"
        }
      ],
      "payable": false,
      "stateMutability": "pure",
      "type": "function"
    },
    {
      "constant": false,
      "inputs": [
        {
          "internalType": "bytes32[]",
          "name": "adr_data_hash",
          "type": "bytes32[]"
        }
      ],
      "name": "Registration",
      "outputs": [],
      "payable": true,
      "stateMutability": "payable",
      "type": "function"
    },
    {
      "constant": false,
      "inputs": [
        {
          "internalType": "address",
          "name": "pid",
          "type": "address"
        },
        {
          "internalType": "bytes32[]",
          "name": "sample_hash",
          "type": "bytes32[]"
        }
      ],
      "name": "SampleData",
      "outputs": [],
      "payable": false,
      "stateMutability": "nonpayable",
      "type": "function"
    },
    {
      "constant": false,
      "inputs": [
        {
          "internalType": "string",
          "name": "features",
          "type": "string"
        }
      ],
      "name": "SubmitFeatures",
      "outputs": [],
      "payable": false,
      "stateMutability": "nonpayable",
      "type": "function"
    },
    {
      "constant": false,
      "inputs": [
        {
          "internalType": "address",
          "name": "pid",
          "type": "address"
        }
      ],
      "name": "SetCandidate",
      "outputs": [],
      "payable": false,
      "stateMutability": "nonpayable",
      "type": "function"
    },
    {
      "constant": false,
      "inputs": [
        {
          "internalType": "address",
          "name": "pid",
          "type": "address"
        },
        {
          "internalType": "string",
          "name": "plain_sample",
          "type": "string"
        },
        {
          "internalType": "bytes32",
          "name": "K_data",
          "type": "bytes32"
        }
      ],
      "name": "SubmitReview",
      "outputs": [],
      "payable": false,
      "stateMutability": "nonpayable",
      "type": "function"
    },
    {
      "constant": false,
      "inputs": [
        {
          "internalType": "address",
          "name": "pid",
          "type": "address"
        }
      ],
      "name": "SetOptimal",
      "outputs": [],
      "payable": false,
      "stateMutability": "nonpayable",
      "type": "function"
    },
    {
      "constant": false,
      "inputs": [
        {
          "internalType": "string",
          "name": "data_plain",
          "type": "string"
        }
      ],
      "name": "ClaimReward",
      "outputs": [],
      "payable": true,
      "stateMutability": "payable",
      "type": "function"
    },
    {
      "constant": false,
      "inputs": [],
      "name": "ClaimDeposit",
      "outputs": [],
      "payable": true,
      "stateMutability": "payable",
      "type": "function"
    }
  ],
  "bytecode": "0x608060405234801561001057600080fd5b506115f5806100206000396000f3fe60806040526004361061012a5760003560e01c806365754a21116100ab57806396fd514d1161006f57806396fd514d146102f55780639cead4281461030a578063c19d93fb1461031f578063cf7049ff14610334578063f025e84614610349578063f51a5710146103695761012a565b806365754a21146102515780636b253c951461027e57806382d98a7514610291578063834ee417146102be57806395fe53f5146102e05761012a565b80632dc6ead0116100f25780632dc6ead0146101b75780634aa09535146101d757806353ed3f18146101ea578063544336e21461021c578063579779fe146102315761012a565b8063064469bc1461012f5780630706ee18146101445780631c1ae1661461014c5780631cd6e026146101775780631e5ae6ef14610197575b600080fd5b61014261013d366004611154565b61037e565b005b610142610407565b34801561015857600080fd5b506101616104ab565b60405161016e91906113e0565b60405180910390f35b34801561018357600080fd5b50610142610192366004611077565b6104ba565b3480156101a357600080fd5b506101426101b23660046111a7565b610526565b3480156101c357600080fd5b506101426101d2366004611077565b6105d4565b6101426101e53660046111a7565b610649565b3480156101f657600080fd5b5061020a610205366004611077565b610833565b60405161016e9695949392919061142c565b34801561022857600080fd5b506101616108fc565b34801561023d57600080fd5b5061014261024c3660046110ef565b61090b565b34801561025d57600080fd5b5061027161026c36600461123b565b610b00565b60405161016e91906113ee565b61014261028c366004611282565b610c0c565b34801561029d57600080fd5b506102b16102ac3660046111dc565b610c50565b60405161016e91906113ff565b3480156102ca57600080fd5b506102d3610cc6565b60405161016e919061140d565b3480156102ec57600080fd5b50610161610ccc565b34801561030157600080fd5b506102d3610cdb565b34801561031657600080fd5b506102d3610ce1565b34801561032b57600080fd5b506102d3610ce7565b34801561034057600080fd5b506102d3610ced565b34801561035557600080fd5b5061014261036436600461109d565b610cf3565b34801561037557600080fd5b506102d3610dea565b60065434101561038a57fe5b6004541561039457fe5b3360008181526020819052604090206007015460ff16156103b157fe5b6001600160a01b03811660009081526020818152604090912083516103d892850190610df0565b506001600160a01b03166000908152602081905260409020346006820155600701805460ff1916600117905550565b6004546003148061041d57506008546009540142115b61042357fe5b3360008181526020819052604090206007015460ff1661043f57fe5b6001600160a01b038116600090815260208190526040808220600601549051339282156108fc02929190818181858888f19350505050158015610486573d6000803e3d6000fd5b506001600160a01b03166000908152602081905260409020600701805460ff19169055565b6001546001600160a01b031681565b6001546001600160a01b0316331480156104d45750600454155b6104da57fe5b6001600160a01b03811660009081526020819052604090206007015460ff166104ff57fe5b600280546001600160a01b0319166001600160a01b03929092169190911790556001600455565b3360008181526020819052604090206007015460ff1661054257fe5b60045415801561057457506001600160a01b03811660009081526020819052604090206007015462010000900460ff16155b61057a57fe5b6001600160a01b03811660009081526020818152604090912083516105a792600290920191850190610e3b565b506001600160a01b03166000908152602081905260409020600701805462ff000019166201000017905550565b6001546001600160a01b0316331480156105f057506004546001145b6105f657fe5b6002546001600160a01b03828116911614801561061c57506003546001600160a01b0316155b61062257fe5b600380546001600160a01b0319166001600160a01b03929092169190911790556002600455565b6003546001600160a01b03163314801561066557506004546002145b61066b57fe5b606061067882602e610b00565b805190915060005b818110156107d457606083828151811061069657fe5b602002602001015190507fddfd4c6fbb12ce4152ee675e6283faba18d141b080d00f117e119e0dbf90268a816040516106cf919061141b565b60405180910390a160006002826040516106e991906113d4565b602060405180830381855afa158015610706573d6000803e3d6000fd5b5050506040513d601f19601f820116820180604052506107299190810190611189565b905060008051602061159383398151915281604051610748919061140d565b60405180910390a1336000908152602081905260409020805460008051602061159383398151915291908590811061077c57fe5b9060005260206000200154604051610794919061140d565b60405180910390a13360009081526020819052604090208054849081106107b757fe5b906000526020600020015481146107ca57fe5b5050600101610680565b503360009081526020818152604090912083516107f992600390920191850190610ea8565b50600554604051339180156108fc02916000818181858888f19350505050158015610828573d6000803e3d6000fd5b505060036004555050565b600060208181529181526040908190206002808201805484516001821615610100026000190190911692909204601f810186900486028301860190945283825291939092908301828280156108c95780601f1061089e576101008083540402835291602001916108c9565b820191906000526020600020905b8154815290600101906020018083116108ac57829003601f168201915b505050600584015460068501546007909501549394909390925060ff808216925061010082048116916201000090041686565b6002546001600160a01b031681565b336001600160a01b03841614801561093057506002546001600160a01b038481169116145b61093657fe5b60045460011461094257fe5b606061094f83602e610b00565b805190915060005b81811015610ac357606083828151811061096d57fe5b602002602001015190507fddfd4c6fbb12ce4152ee675e6283faba18d141b080d00f117e119e0dbf90268a816040516109a6919061141b565b60405180910390a160006002826040516109c091906113d4565b602060405180830381855afa1580156109dd573d6000803e3d6000fd5b5050506040513d601f19601f82011682018060405250610a009190810190611189565b905060008051602061159383398151915281604051610a1f919061140d565b60405180910390a16001600160a01b03881660009081526020819052604090206001018054600080516020611593833981519152919085908110610a5f57fe5b9060005260206000200154604051610a77919061140d565b60405180910390a16001600160a01b0388166000908152602081905260409020600101805484908110610aa657fe5b90600052602060002001548114610ab957fe5b5050600101610957565b506001600160a01b038516600090815260208181526040909120600581018590558351610af892600490920191850190610ea8565b505050505050565b606080839050600083825181610b1257fe5b049050606081604051908082528060200260200182016040528015610b4b57816020015b6060815260200190600190039081610b365790505b5090506000805b83811015610bfe576060876040519080825280601f01601f191660200182016040528015610b87576020820181803883390190505b50905060005b88811015610bdc578651600185019488918110610ba657fe5b602001015160f81c60f81b828281518110610bbd57fe5b60200101906001600160f81b031916908160001a905350600101610b8d565b5080848381518110610bea57fe5b602090810291909101015250600101610b52565b509093505050505b92915050565b600180546001600160a01b031916331790558251610c3190600a906020860190610e3b565b5060069190915560075550603060085534600555426009556000600455565b815160009083908390835b81811015610cb957828181518110610c6f57fe5b602001015160f81c60f81b6001600160f81b031916848281518110610c9057fe5b01602001516001600160f81b03191614610cb1576000945050505050610c06565b600101610c5b565b5060019695505050505050565b60095481565b6003546001600160a01b031681565b60055481565b60065481565b60045481565b60085481565b6001546001600160a01b031633148015610d2857506001600160a01b03821660009081526020819052604090206007015460ff165b610d2e57fe5b600454158015610d5f57506001600160a01b038216600090815260208190526040902060070154610100900460ff16155b610d6557fe5b6007546001600160a01b0383166000908152602081905260409020548251910260649091021115610d9257fe5b6001600160a01b0382166000908152602081815260409091208251610dbf92600190920191840190610df0565b50506001600160a01b03166000908152602081905260409020600701805461ff001916610100179055565b60075481565b828054828255906000526020600020908101928215610e2b579160200282015b82811115610e2b578251825591602001919060010190610e10565b50610e37929150610f01565b5090565b828054600181600116156101000203166002900490600052602060002090601f016020900481019282601f10610e7c57805160ff1916838001178555610e2b565b82800160010185558215610e2b5791820182811115610e2b578251825591602001919060010190610e10565b828054828255906000526020600020908101928215610ef5579160200282015b82811115610ef55782518051610ee5918491602090910190610e3b565b5091602001919060010190610ec8565b50610e37929150610f1e565b610f1b91905b80821115610e375760008155600101610f07565b90565b610f1b91905b80821115610e37576000610f388282610f41565b50600101610f24565b50805460018160011615610100020316600290046000825580601f10610f675750610f85565b601f016020900490600052602060002090810190610f859190610f01565b50565b8035610c0681611575565b600082601f830112610fa457600080fd5b8135610fb7610fb2826114b2565b61148b565b91508181835260208401935060208101905083856020840282011115610fdc57600080fd5b60005b838110156110085781610ff28882611012565b8452506020928301929190910190600101610fdf565b5050505092915050565b8035610c0681611589565b8051610c0681611589565b600082601f83011261103957600080fd5b8135611047610fb2826114d3565b9150808252602083016020830185838301111561106357600080fd5b61106e83828461152f565b50505092915050565b60006020828403121561108957600080fd5b60006110958484610f88565b949350505050565b600080604083850312156110b057600080fd5b60006110bc8585610f88565b925050602083013567ffffffffffffffff8111156110d957600080fd5b6110e585828601610f93565b9150509250929050565b60008060006060848603121561110457600080fd5b60006111108686610f88565b935050602084013567ffffffffffffffff81111561112d57600080fd5b61113986828701611028565b925050604061114a86828701611012565b9150509250925092565b60006020828403121561116657600080fd5b813567ffffffffffffffff81111561117d57600080fd5b61109584828501610f93565b60006020828403121561119b57600080fd5b6000611095848461101d565b6000602082840312156111b957600080fd5b813567ffffffffffffffff8111156111d057600080fd5b61109584828501611028565b600080604083850312156111ef57600080fd5b823567ffffffffffffffff81111561120657600080fd5b61121285828601611028565b925050602083013567ffffffffffffffff81111561122f57600080fd5b6110e585828601611028565b6000806040838503121561124e57600080fd5b823567ffffffffffffffff81111561126557600080fd5b61127185828601611028565b92505060206110e585828601611012565b60008060006060848603121561129757600080fd5b833567ffffffffffffffff8111156112ae57600080fd5b6112ba86828701611028565b935050602061113986828701611012565b60006112d7838361139c565b9392505050565b6112e781611513565b82525050565b60006112f882611501565b6113028185611505565b935083602082028501611314856114fb565b8060005b8581101561134e578484038952815161133185826112cb565b945061133c836114fb565b60209a909a0199925050600101611318565b5091979650505050505050565b6112e78161151e565b6112e781610f1b565b600061137882611501565b611382818561150e565b935061139281856020860161153b565b9290920192915050565b60006113a782611501565b6113b18185611505565b93506113c181856020860161153b565b6113ca8161156b565b9093019392505050565b60006112d7828461136d565b60208101610c0682846112de565b602080825281016112d781846112ed565b60208101610c06828461135b565b60208101610c068284611364565b602080825281016112d7818461139c565b60c0808252810161143d818961139c565b905061144c6020830188611364565b6114596040830187611364565b611466606083018661135b565b611473608083018561135b565b61148060a083018461135b565b979650505050505050565b60405181810167ffffffffffffffff811182821017156114aa57600080fd5b604052919050565b600067ffffffffffffffff8211156114c957600080fd5b5060209081020190565b600067ffffffffffffffff8211156114ea57600080fd5b506020601f91909101601f19160190565b60200190565b5190565b90815260200190565b919050565b6000610c0682611523565b151590565b6001600160a01b031690565b82818337506000910152565b60005b8381101561155657818101518382015260200161153e565b83811115611565576000848401525b50505050565b601f01601f191690565b61157e81611513565b8114610f8557600080fd5b61157e81610f1b56fe9b61a807fd71174ca15714bd7e4bce728b5db2157fbef230f16a38a465cf5ff8a365627a7a7231582013a9f9e6e9c5dcc1addf2526079f3b2512b0fc8895d996bc2913d36819d8bade6c6578706572696d656e74616cf564736f6c63430005100040",
  "source": "pragma experimental ABIEncoderV2;\r\n\r\ncontract Trade{\r\n    struct pri_profile{  //provider profile\r\n\t\tbytes32[] adr_data_hash;\r\n\t\tbytes32[] adr_sample_hash;\r\n\t\tstring adr_feature;\r\n\t\tstring[] adr_data_plain;\r\n\t\tstring[] adr_sample_plain;\r\n\t\tbytes32 Key_data;\r\n\t\tuint V_deposit;\r\n\t\tbool isRegisted;\r\n\t\tbool sampled;\r\n\t\tbool setfeature;\r\n\t}\r\n\r\n\tmapping(address=>pri_profile) public P_profile;\r\n\taddress public P_col;\r\n\taddress public P_tc;\r\n\taddress public P_opt;\r\n\tuint public state; //0:pending;   1:reviewing;  2:reviewed  3:closed\r\n\tuint public CF_reward;\r\n\tuint public CF_deposit;\r\n\tuint public CF_percentage;\r\n\tuint public CF_expiry;\r\n\tuint public start_time;\r\n\tstring adr_model;\r\n\t\r\n\tevent printstring(string aa);\r\n\tevent printbytes(bytes ss);\r\n\tevent printbytes32(bytes32 a);\r\n\tevent printlength(uint a);\r\n\t\r\n\tconstructor() public{\t\r\n    }\r\n\r\n    function CreateContract(string memory _modeladr, uint _deposit, uint _percentage) payable public{\r\n    \tP_col=msg.sender;\r\n        adr_model=_modeladr; \r\n\t\tCF_deposit=_deposit;\r\n\t\tCF_percentage=_percentage;\r\n\t\tCF_expiry=2*24;\r\n    \tCF_reward=msg.value;\r\n    \tstart_time=now;\r\n    \tstate=0; //pending\r\n    }\r\n    \r\n    function ConvertString2Arr(string memory ss, uint one_adr_len) public pure returns(string[] memory){\r\n        //uint one_adr_len=46;\r\n        //the length of one ipfs hash address. eg., QmXoypizjW3WknFiJnKLwHCnL72vedxjQkDDP1mXWo6uco\r\n        bytes memory _ss=bytes(ss);\r\n        uint len=_ss.length/one_adr_len;\r\n        string[] memory arr=new string[](len);\r\n        uint k=0;\r\n        for(uint i=0;i<len;i++)\r\n        {\r\n          bytes memory item=new bytes(one_adr_len);\r\n          for(uint j=0; j<one_adr_len; j++)\r\n          {\r\n            item[j]=_ss[k++];\r\n          }\r\n          //emit printbytes(item);\r\n          arr[i]=string(item);\r\n        }\r\n        return arr;\r\n    }\r\n    \r\n    function StrCmp(string memory s1, string memory s2)public pure returns(bool){\r\n        bytes memory _s1=bytes(s1);\r\n        bytes memory _s2=bytes(s2);\r\n        uint len=_s1.length;\r\n        for(uint i=0;i<len;i++){\r\n            if(_s1[i]!=_s2[i])\r\n                return false;\r\n        }\r\n        return true;\r\n    }\r\n\r\n    \t\r\n    function Registration(bytes32[] memory adr_data_hash) payable public{\r\n\t\tassert(msg.value>=CF_deposit);\r\n\t\tassert(state==0);\r\n\t\taddress pid=msg.sender;\r\n\t\t\r\n\t\tassert(P_profile[pid].isRegisted==false);\r\n\t\t\r\n\t\tP_profile[pid].adr_data_hash=adr_data_hash;\r\n\t\tP_profile[pid].V_deposit=msg.value;\r\n\t\tP_profile[pid].isRegisted=true;\r\n\t}\r\n\t\r\n\t\r\n    function SampleData(address pid, bytes32[] memory sample_hash) public{\r\n\t\tassert(msg.sender==P_col && P_profile[pid].isRegisted);\r\n\t\tassert(state==0 && P_profile[pid].sampled==false);\r\n\t\tassert(sample_hash.length*100<=P_profile[pid].adr_data_hash.length*CF_percentage);\r\n\t\t\r\n\t\tP_profile[pid].adr_sample_hash=sample_hash;\r\n\t\tP_profile[pid].sampled=true;\r\n\t}\r\n\t\r\n\tfunction SubmitFeatures(string memory features) public{\r\n\t\taddress pid=msg.sender;\r\n\t\tassert(P_profile[pid].isRegisted);\r\n\t\tassert(state==0 && P_profile[pid].setfeature==false);\r\n\t\tP_profile[pid].adr_feature=features;\r\n\t\tP_profile[pid].setfeature=true;\r\n\t}\r\n\t\r\n\tfunction SetCandidate(address pid) public{\r\n\t\tassert(msg.sender==P_col && state==0);\r\n\t\tassert(P_profile[pid].isRegisted);\r\n\t\tP_tc=pid;\r\n\t\tstate=1; //reviewing\r\n\t}\r\n\r\n\tfunction SubmitReview(address pid, string memory plain_sample, bytes32 K_data) public{\r\n\t\tassert(msg.sender==pid && pid==P_tc);\r\n\t\tassert(state==1);\r\n\t\tstring[] memory adr_sample_plain_arr=ConvertString2Arr(plain_sample, 46);\r\n\t\tuint len=adr_sample_plain_arr.length;\r\n\t\tfor(uint i=0;i<len;i++)\r\n\t\t{\r\n\t\t    //check the hash value of each plain address\r\n\t\t    string memory plain_sample_item=adr_sample_plain_arr[i];  //befor hash, one plane addr\r\n\t\t    emit printstring(plain_sample_item);\r\n\t\t    bytes32 hash_item=sha256(bytes(plain_sample_item));\r\n\t\t    \r\n\t\t    emit printbytes32(hash_item);\r\n\t\t    emit printbytes32(P_profile[pid].adr_sample_hash[i]);\r\n\t\t    \r\n\t\t    assert(hash_item==P_profile[pid].adr_sample_hash[i]);\r\n\t\t}\r\n\t\tP_profile[pid].Key_data=K_data;\r\n\t\tP_profile[pid].adr_sample_plain=adr_sample_plain_arr;\r\n\t}\r\n    \r\n    function SetOptimal(address pid)public{\r\n        assert(msg.sender==P_col && state==1);\r\n        assert(pid==P_tc && P_opt==address(0));\r\n        P_opt=pid;\r\n        state=2;  //reviewed\r\n    }\r\n    \r\n    function ClaimReward(string memory data_plain)payable public{\r\n        assert(msg.sender==P_opt && state==2);\r\n        string[] memory adr_data_plain_arr=ConvertString2Arr(data_plain, 46);\r\n        uint len=adr_data_plain_arr.length;\r\n        for(uint i=0; i<len; i++)\r\n        {\r\n            string memory plain_data_item=adr_data_plain_arr[i];\r\n            emit printstring(plain_data_item);\r\n            bytes32 hash_item=sha256(bytes(plain_data_item));\r\n            \r\n            emit printbytes32(hash_item);\r\n            emit printbytes32(P_profile[msg.sender].adr_data_hash[i]);\r\n            \r\n            assert(hash_item==P_profile[msg.sender].adr_data_hash[i]);\r\n        }\r\n    \tP_profile[msg.sender].adr_data_plain=adr_data_plain_arr;\r\n    \t(msg.sender).transfer(CF_reward);\r\n    \tstate=3; //closed\r\n    }\r\n    \r\n    function ClaimDeposit()payable public{\r\n        assert(state==3 || now>start_time+CF_expiry);\r\n        address pid=msg.sender;\r\n        assert(P_profile[pid].isRegisted);\r\n        (msg.sender).transfer(P_profile[pid].V_deposit);\r\n        P_profile[pid].isRegisted=false;\r\n    }    \r\n}\r\n",
  "sourcePath": "/home/lsn/Desktop/wetrade/contracts/Trade.sol",
  "compiler": {
    "name": "solc",
    "version": "0.5.16+commit.9c3226ce.Emscripten.clang"
  },
  "schemaVersion": "3.0.23",
  "updatedAt": "2020-03-27T13:00:25.099Z",
  "networkType": "ethereum",
  "devdoc": {
    "methods": {}
  },
  "userdoc": {
    "methods": {}
  }
}